{
	"Smart Wallet.sol": {
		"SmartWallet": {
			"abi": [
				{
					"inputs": [],
					"stateMutability": "nonpayable",
					"type": "constructor"
				},
				{
					"anonymous": false,
					"inputs": [
						{
							"indexed": false,
							"internalType": "address",
							"name": "_address",
							"type": "address"
						},
						{
							"indexed": false,
							"internalType": "uint256",
							"name": "_amount",
							"type": "uint256"
						}
					],
					"name": "RecievedMoney",
					"type": "event"
				},
				{
					"stateMutability": "payable",
					"type": "fallback"
				},
				{
					"inputs": [],
					"name": "Register",
					"outputs": [
						{
							"internalType": "bool",
							"name": "",
							"type": "bool"
						}
					],
					"stateMutability": "nonpayable",
					"type": "function"
				},
				{
					"inputs": [
						{
							"internalType": "uint256",
							"name": "_amount",
							"type": "uint256"
						}
					],
					"name": "WithdrawMoney",
					"outputs": [],
					"stateMutability": "payable",
					"type": "function"
				},
				{
					"inputs": [],
					"name": "owner",
					"outputs": [
						{
							"internalType": "address payable",
							"name": "",
							"type": "address"
						}
					],
					"stateMutability": "view",
					"type": "function"
				}
			],
			"devdoc": {
				"kind": "dev",
				"methods": {},
				"version": 1
			},
			"evm": {
				"assembly": "    /* \"Smart Wallet.sol\":27:1133  contract SmartWallet {\r... */\n  mstore(0x40, 0x80)\n    /* \"Smart Wallet.sol\":251:311  constructor() public {\r... */\n  callvalue\n  dup1\n  iszero\n  tag_1\n  jumpi\n  0x00\n  dup1\n  revert\ntag_1:\n  pop\n    /* \"Smart Wallet.sol\":291:301  msg.sender */\n  caller\n    /* \"Smart Wallet.sol\":283:288  owner */\n  0x01\n  0x00\n    /* \"Smart Wallet.sol\":283:301  owner = msg.sender */\n  0x0100\n  exp\n  dup2\n  sload\n  dup2\n  0xffffffffffffffffffffffffffffffffffffffff\n  mul\n  not\n  and\n  swap1\n  dup4\n  0xffffffffffffffffffffffffffffffffffffffff\n  and\n  mul\n  or\n  swap1\n  sstore\n  pop\n    /* \"Smart Wallet.sol\":27:1133  contract SmartWallet {\r... */\n  dataSize(sub_0)\n  dup1\n  dataOffset(sub_0)\n  0x00\n  codecopy\n  0x00\n  return\nstop\n\nsub_0: assembly {\n        /* \"Smart Wallet.sol\":27:1133  contract SmartWallet {\r... */\n      mstore(0x40, 0x80)\n      jumpi(tag_1, lt(calldatasize, 0x04))\n      shr(0xe0, calldataload(0x00))\n      dup1\n      0x19e5bf3a\n      eq\n      tag_3\n      jumpi\n      dup1\n      0x8da5cb5b\n      eq\n      tag_4\n      jumpi\n      dup1\n      0xfb8299b0\n      eq\n      tag_5\n      jumpi\n      jump(tag_2)\n    tag_1:\n    tag_2:\n        /* \"Smart Wallet.sol\":363:409  RecievedMoney(msg.sender, msg.value / 1 ether) */\n      0xc3c5fffb3c0f24b3bc590d2c32d22157634000403cdc35bbe4169569797976e6\n        /* \"Smart Wallet.sol\":377:387  msg.sender */\n      caller\n        /* \"Smart Wallet.sol\":401:408  1 ether */\n      0x0de0b6b3a7640000\n        /* \"Smart Wallet.sol\":389:398  msg.value */\n      callvalue\n        /* \"Smart Wallet.sol\":389:408  msg.value / 1 ether */\n      dup2\n      tag_8\n      jumpi\n      invalid\n    tag_8:\n      div\n        /* \"Smart Wallet.sol\":363:409  RecievedMoney(msg.sender, msg.value / 1 ether) */\n      mload(0x40)\n      dup1\n      dup4\n      0xffffffffffffffffffffffffffffffffffffffff\n      and\n      dup2\n      mstore\n      0x20\n      add\n      dup3\n      dup2\n      mstore\n      0x20\n      add\n      swap3\n      pop\n      pop\n      pop\n      mload(0x40)\n      dup1\n      swap2\n      sub\n      swap1\n      log1\n        /* \"Smart Wallet.sol\":429:438  msg.value */\n      callvalue\n        /* \"Smart Wallet.sol\":420:425  funds */\n      0x02\n      0x00\n        /* \"Smart Wallet.sol\":420:438  funds += msg.value */\n      dup3\n      dup3\n      sload\n      add\n      swap3\n      pop\n      pop\n      dup2\n      swap1\n      sstore\n      pop\n        /* \"Smart Wallet.sol\":27:1133  contract SmartWallet {\r... */\n      stop\n        /* \"Smart Wallet.sol\":454:604  function Register() public returns(bool) {\r... */\n    tag_3:\n      callvalue\n      dup1\n      iszero\n      tag_9\n      jumpi\n      0x00\n      dup1\n      revert\n    tag_9:\n      pop\n      tag_10\n      tag_11\n      jump\t// in\n    tag_10:\n      mload(0x40)\n      dup1\n      dup3\n      iszero\n      iszero\n      dup2\n      mstore\n      0x20\n      add\n      swap2\n      pop\n      pop\n      mload(0x40)\n      dup1\n      swap2\n      sub\n      swap1\n      return\n        /* \"Smart Wallet.sol\":98:126  address payable public owner */\n    tag_4:\n      callvalue\n      dup1\n      iszero\n      tag_12\n      jumpi\n      0x00\n      dup1\n      revert\n    tag_12:\n      pop\n      tag_13\n      tag_14\n      jump\t// in\n    tag_13:\n      mload(0x40)\n      dup1\n      dup3\n      0xffffffffffffffffffffffffffffffffffffffff\n      and\n      dup2\n      mstore\n      0x20\n      add\n      swap2\n      pop\n      pop\n      mload(0x40)\n      dup1\n      swap2\n      sub\n      swap1\n      return\n        /* \"Smart Wallet.sol\":612:1130  function WithdrawMoney(uint _amount) payable public {\r... */\n    tag_5:\n      tag_15\n      0x04\n      dup1\n      calldatasize\n      sub\n      0x20\n      dup2\n      lt\n      iszero\n      tag_16\n      jumpi\n      0x00\n      dup1\n      revert\n    tag_16:\n      dup2\n      add\n      swap1\n      dup1\n      dup1\n      calldataload\n      swap1\n      0x20\n      add\n      swap1\n      swap3\n      swap2\n      swap1\n      pop\n      pop\n      pop\n      tag_17\n      jump\t// in\n    tag_15:\n      stop\n        /* \"Smart Wallet.sol\":454:604  function Register() public returns(bool) {\r... */\n    tag_11:\n        /* \"Smart Wallet.sol\":489:493  bool */\n      0x00\n        /* \"Smart Wallet.sol\":528:530  20 */\n      0x14\n        /* \"Smart Wallet.sol\":506:513  Balance */\n      0x00\n        /* \"Smart Wallet.sol\":506:525  Balance[msg.sender] */\n      dup1\n        /* \"Smart Wallet.sol\":514:524  msg.sender */\n      caller\n        /* \"Smart Wallet.sol\":506:525  Balance[msg.sender] */\n      0xffffffffffffffffffffffffffffffffffffffff\n      and\n      0xffffffffffffffffffffffffffffffffffffffff\n      and\n      dup2\n      mstore\n      0x20\n      add\n      swap1\n      dup2\n      mstore\n      0x20\n      add\n      0x00\n      keccak256\n        /* \"Smart Wallet.sol\":506:530  Balance[msg.sender] = 20 */\n      dup2\n      swap1\n      sstore\n      pop\n        /* \"Smart Wallet.sol\":558:563  funds */\n      sload(0x02)\n        /* \"Smart Wallet.sol\":541:548  Balance */\n      0x00\n        /* \"Smart Wallet.sol\":541:555  Balance[owner] */\n      dup1\n        /* \"Smart Wallet.sol\":549:554  owner */\n      0x01\n      0x00\n      swap1\n      sload\n      swap1\n      0x0100\n      exp\n      swap1\n      div\n      0xffffffffffffffffffffffffffffffffffffffff\n      and\n        /* \"Smart Wallet.sol\":541:555  Balance[owner] */\n      0xffffffffffffffffffffffffffffffffffffffff\n      and\n      0xffffffffffffffffffffffffffffffffffffffff\n      and\n      dup2\n      mstore\n      0x20\n      add\n      swap1\n      dup2\n      mstore\n      0x20\n      add\n      0x00\n      keccak256\n        /* \"Smart Wallet.sol\":541:563  Balance[owner] = funds */\n      dup2\n      swap1\n      sstore\n      pop\n        /* \"Smart Wallet.sol\":592:596  true */\n      0x01\n        /* \"Smart Wallet.sol\":581:589  register */\n      0x03\n      0x00\n        /* \"Smart Wallet.sol\":581:596  register = true */\n      0x0100\n      exp\n      dup2\n      sload\n      dup2\n      0xff\n      mul\n      not\n      and\n      swap1\n      dup4\n      iszero\n      iszero\n      mul\n      or\n      swap1\n      sstore\n        /* \"Smart Wallet.sol\":574:596  return register = true */\n      swap1\n      pop\n        /* \"Smart Wallet.sol\":454:604  function Register() public returns(bool) {\r... */\n      swap1\n      jump\t// out\n        /* \"Smart Wallet.sol\":98:126  address payable public owner */\n    tag_14:\n      0x01\n      0x00\n      swap1\n      sload\n      swap1\n      0x0100\n      exp\n      swap1\n      div\n      0xffffffffffffffffffffffffffffffffffffffff\n      and\n      dup2\n      jump\t// out\n        /* \"Smart Wallet.sol\":612:1130  function WithdrawMoney(uint _amount) payable public {\r... */\n    tag_17:\n        /* \"Smart Wallet.sol\":695:699  true */\n      0x01\n        /* \"Smart Wallet.sol\":683:699  register == true */\n      iszero\n      iszero\n        /* \"Smart Wallet.sol\":683:691  register */\n      0x03\n      0x00\n      swap1\n      sload\n      swap1\n      0x0100\n      exp\n      swap1\n      div\n      0xff\n      and\n        /* \"Smart Wallet.sol\":683:699  register == true */\n      iszero\n      iszero\n      eq\n        /* \"Smart Wallet.sol\":675:726  require(register == true, \"You are not registered\") */\n      tag_20\n      jumpi\n      mload(0x40)\n      0x08c379a000000000000000000000000000000000000000000000000000000000\n      dup2\n      mstore\n      0x04\n      add\n      dup1\n      dup1\n      0x20\n      add\n      dup3\n      dup2\n      sub\n      dup3\n      mstore\n      0x16\n      dup2\n      mstore\n      0x20\n      add\n      dup1\n      0x596f7520617265206e6f74207265676973746572656400000000000000000000\n      dup2\n      mstore\n      pop\n      0x20\n      add\n      swap2\n      pop\n      pop\n      mload(0x40)\n      dup1\n      swap2\n      sub\n      swap1\n      revert\n    tag_20:\n        /* \"Smart Wallet.sol\":768:775  _amount */\n      dup1\n        /* \"Smart Wallet.sol\":745:752  Balance */\n      0x00\n        /* \"Smart Wallet.sol\":745:764  Balance[msg.sender] */\n      dup1\n        /* \"Smart Wallet.sol\":753:763  msg.sender */\n      caller\n        /* \"Smart Wallet.sol\":745:764  Balance[msg.sender] */\n      0xffffffffffffffffffffffffffffffffffffffff\n      and\n      0xffffffffffffffffffffffffffffffffffffffff\n      and\n      dup2\n      mstore\n      0x20\n      add\n      swap1\n      dup2\n      mstore\n      0x20\n      add\n      0x00\n      keccak256\n      sload\n        /* \"Smart Wallet.sol\":745:775  Balance[msg.sender] >= _amount */\n      lt\n      iszero\n        /* \"Smart Wallet.sol\":737:816  require(Balance[msg.sender] >= _amount, \"Not enough remaining money on wallet\") */\n      tag_21\n      jumpi\n      mload(0x40)\n      0x08c379a000000000000000000000000000000000000000000000000000000000\n      dup2\n      mstore\n      0x04\n      add\n      dup1\n      dup1\n      0x20\n      add\n      dup3\n      dup2\n      sub\n      dup3\n      mstore\n      0x24\n      dup2\n      mstore\n      0x20\n      add\n      dup1\n      data_4d1196ed490f5543b658f98eb35ee12d8f8caae3c07eb3daa683bcdca46d2b36\n      0x24\n      swap2\n      codecopy\n      0x40\n      add\n      swap2\n      pop\n      pop\n      mload(0x40)\n      dup1\n      swap2\n      sub\n      swap1\n      revert\n    tag_21:\n        /* \"Smart Wallet.sol\":844:851  _amount */\n      dup1\n        /* \"Smart Wallet.sol\":835:840  funds */\n      sload(0x02)\n        /* \"Smart Wallet.sol\":835:851  funds >= _amount */\n      lt\n      iszero\n        /* \"Smart Wallet.sol\":827:882  require(funds >= _amount, \"Not enough funds on wallet\") */\n      tag_22\n      jumpi\n      mload(0x40)\n      0x08c379a000000000000000000000000000000000000000000000000000000000\n      dup2\n      mstore\n      0x04\n      add\n      dup1\n      dup1\n      0x20\n      add\n      dup3\n      dup2\n      sub\n      dup3\n      mstore\n      0x1a\n      dup2\n      mstore\n      0x20\n      add\n      dup1\n      0x4e6f7420656e6f7567682066756e6473206f6e2077616c6c6574000000000000\n      dup2\n      mstore\n      pop\n      0x20\n      add\n      swap2\n      pop\n      pop\n      mload(0x40)\n      dup1\n      swap2\n      sub\n      swap1\n      revert\n    tag_22:\n        /* \"Smart Wallet.sol\":919:924  funds */\n      sload(0x02)\n        /* \"Smart Wallet.sol\":908:915  _amount */\n      dup2\n        /* \"Smart Wallet.sol\":900:905  funds */\n      sload(0x02)\n        /* \"Smart Wallet.sol\":900:915  funds - _amount */\n      sub\n        /* \"Smart Wallet.sol\":900:924  funds - _amount <= funds */\n      gt\n      iszero\n        /* \"Smart Wallet.sol\":893:925  assert(funds - _amount <= funds) */\n      tag_23\n      jumpi\n      invalid\n    tag_23:\n        /* \"Smart Wallet.sol\":976:983  Balance */\n      0x00\n        /* \"Smart Wallet.sol\":976:995  Balance[msg.sender] */\n      dup1\n        /* \"Smart Wallet.sol\":984:994  msg.sender */\n      caller\n        /* \"Smart Wallet.sol\":976:995  Balance[msg.sender] */\n      0xffffffffffffffffffffffffffffffffffffffff\n      and\n      0xffffffffffffffffffffffffffffffffffffffff\n      and\n      dup2\n      mstore\n      0x20\n      add\n      swap1\n      dup2\n      mstore\n      0x20\n      add\n      0x00\n      keccak256\n      sload\n        /* \"Smart Wallet.sol\":965:972  _amount */\n      dup2\n        /* \"Smart Wallet.sol\":943:950  Balance */\n      0x00\n        /* \"Smart Wallet.sol\":943:962  Balance[msg.sender] */\n      dup1\n        /* \"Smart Wallet.sol\":951:961  msg.sender */\n      caller\n        /* \"Smart Wallet.sol\":943:962  Balance[msg.sender] */\n      0xffffffffffffffffffffffffffffffffffffffff\n      and\n      0xffffffffffffffffffffffffffffffffffffffff\n      and\n      dup2\n      mstore\n      0x20\n      add\n      swap1\n      dup2\n      mstore\n      0x20\n      add\n      0x00\n      keccak256\n      sload\n        /* \"Smart Wallet.sol\":943:972  Balance[msg.sender] - _amount */\n      sub\n        /* \"Smart Wallet.sol\":943:995  Balance[msg.sender] - _amount <= Balance[msg.sender] */\n      gt\n      iszero\n        /* \"Smart Wallet.sol\":936:996  assert(Balance[msg.sender] - _amount <= Balance[msg.sender]) */\n      tag_24\n      jumpi\n      invalid\n    tag_24:\n        /* \"Smart Wallet.sol\":1015:1025  msg.sender */\n      caller\n        /* \"Smart Wallet.sol\":1007:1035  payable(msg.sender).transfer */\n      0xffffffffffffffffffffffffffffffffffffffff\n      and\n        /* \"Smart Wallet.sol\":1007:1054  payable(msg.sender).transfer(_amount * 1 ether) */\n      0x08fc\n        /* \"Smart Wallet.sol\":1046:1053  1 ether */\n      0x0de0b6b3a7640000\n        /* \"Smart Wallet.sol\":1036:1043  _amount */\n      dup4\n        /* \"Smart Wallet.sol\":1036:1053  _amount * 1 ether */\n      mul\n        /* \"Smart Wallet.sol\":1007:1054  payable(msg.sender).transfer(_amount * 1 ether) */\n      swap1\n      dup2\n      iszero\n      mul\n      swap1\n      mload(0x40)\n      0x00\n      mload(0x40)\n      dup1\n      dup4\n      sub\n      dup2\n      dup6\n      dup9\n      dup9\n      call\n      swap4\n      pop\n      pop\n      pop\n      pop\n      iszero\n      dup1\n      iszero\n      tag_26\n      jumpi\n      returndatasize\n      0x00\n      dup1\n      returndatacopy\n      revert(0x00, returndatasize)\n    tag_26:\n      pop\n        /* \"Smart Wallet.sol\":1088:1095  _amount */\n      dup1\n        /* \"Smart Wallet.sol\":1065:1072  Balance */\n      0x00\n        /* \"Smart Wallet.sol\":1065:1084  Balance[msg.sender] */\n      dup1\n        /* \"Smart Wallet.sol\":1073:1083  msg.sender */\n      caller\n        /* \"Smart Wallet.sol\":1065:1084  Balance[msg.sender] */\n      0xffffffffffffffffffffffffffffffffffffffff\n      and\n      0xffffffffffffffffffffffffffffffffffffffff\n      and\n      dup2\n      mstore\n      0x20\n      add\n      swap1\n      dup2\n      mstore\n      0x20\n      add\n      0x00\n      keccak256\n      0x00\n        /* \"Smart Wallet.sol\":1065:1095  Balance[msg.sender] -= _amount */\n      dup3\n      dup3\n      sload\n      sub\n      swap3\n      pop\n      pop\n      dup2\n      swap1\n      sstore\n      pop\n        /* \"Smart Wallet.sol\":1115:1122  _amount */\n      dup1\n        /* \"Smart Wallet.sol\":1106:1111  funds */\n      0x02\n      0x00\n        /* \"Smart Wallet.sol\":1106:1122  funds -= _amount */\n      dup3\n      dup3\n      sload\n      sub\n      swap3\n      pop\n      pop\n      dup2\n      swap1\n      sstore\n      pop\n        /* \"Smart Wallet.sol\":612:1130  function WithdrawMoney(uint _amount) payable public {\r... */\n      pop\n      jump\t// out\n    stop\n    data_4d1196ed490f5543b658f98eb35ee12d8f8caae3c07eb3daa683bcdca46d2b36 4e6f7420656e6f7567682072656d61696e696e67206d6f6e6579206f6e2077616c6c6574\n\n    auxdata: 0xa26469706673582212206e301b629b75e631ece94198b8aa98398814f04d606c2e675d8cfbf5386d3cbf64736f6c634300060c0033\n}\n",
				"bytecode": {
					"linkReferences": {},
					"object": "608060405234801561001057600080fd5b5033600160006101000a81548173ffffffffffffffffffffffffffffffffffffffff021916908373ffffffffffffffffffffffffffffffffffffffff160217905550610579806100616000396000f3fe6080604052600436106100385760003560e01c806319e5bf3a146100b15780638da5cb5b146100de578063fb8299b01461011f57610039565b5b7fc3c5fffb3c0f24b3bc590d2c32d22157634000403cdc35bbe4169569797976e633670de0b6b3a7640000348161006c57fe5b04604051808373ffffffffffffffffffffffffffffffffffffffff1681526020018281526020019250505060405180910390a134600260008282540192505081905550005b3480156100bd57600080fd5b506100c661014d565b60405180821515815260200191505060405180910390f35b3480156100ea57600080fd5b506100f3610219565b604051808273ffffffffffffffffffffffffffffffffffffffff16815260200191505060405180910390f35b61014b6004803603602081101561013557600080fd5b810190808035906020019092919050505061023f565b005b600060146000803373ffffffffffffffffffffffffffffffffffffffff1673ffffffffffffffffffffffffffffffffffffffff16815260200190815260200160002081905550600254600080600160009054906101000a900473ffffffffffffffffffffffffffffffffffffffff1673ffffffffffffffffffffffffffffffffffffffff1673ffffffffffffffffffffffffffffffffffffffff168152602001908152602001600020819055506001600360006101000a81548160ff0219169083151502179055905090565b600160009054906101000a900473ffffffffffffffffffffffffffffffffffffffff1681565b60011515600360009054906101000a900460ff161515146102c8576040517f08c379a00000000000000000000000000000000000000000000000000000000081526004018080602001828103825260168152602001807f596f7520617265206e6f7420726567697374657265640000000000000000000081525060200191505060405180910390fd5b806000803373ffffffffffffffffffffffffffffffffffffffff1673ffffffffffffffffffffffffffffffffffffffff16815260200190815260200160002054101561035f576040517f08c379a00000000000000000000000000000000000000000000000000000000081526004018080602001828103825260248152602001806105206024913960400191505060405180910390fd5b8060025410156103d7576040517f08c379a000000000000000000000000000000000000000000000000000000000815260040180806020018281038252601a8152602001807f4e6f7420656e6f7567682066756e6473206f6e2077616c6c657400000000000081525060200191505060405180910390fd5b600254816002540311156103e757fe5b6000803373ffffffffffffffffffffffffffffffffffffffff1673ffffffffffffffffffffffffffffffffffffffff16815260200190815260200160002054816000803373ffffffffffffffffffffffffffffffffffffffff1673ffffffffffffffffffffffffffffffffffffffff1681526020019081526020016000205403111561046f57fe5b3373ffffffffffffffffffffffffffffffffffffffff166108fc670de0b6b3a764000083029081150290604051600060405180830381858888f193505050501580156104bf573d6000803e3d6000fd5b50806000803373ffffffffffffffffffffffffffffffffffffffff1673ffffffffffffffffffffffffffffffffffffffff16815260200190815260200160002060008282540392505081905550806002600082825403925050819055505056fe4e6f7420656e6f7567682072656d61696e696e67206d6f6e6579206f6e2077616c6c6574a26469706673582212206e301b629b75e631ece94198b8aa98398814f04d606c2e675d8cfbf5386d3cbf64736f6c634300060c0033",
					"opcodes": "PUSH1 0x80 PUSH1 0x40 MSTORE CALLVALUE DUP1 ISZERO PUSH2 0x10 JUMPI PUSH1 0x0 DUP1 REVERT JUMPDEST POP CALLER PUSH1 0x1 PUSH1 0x0 PUSH2 0x100 EXP DUP2 SLOAD DUP2 PUSH20 0xFFFFFFFFFFFFFFFFFFFFFFFFFFFFFFFFFFFFFFFF MUL NOT AND SWAP1 DUP4 PUSH20 0xFFFFFFFFFFFFFFFFFFFFFFFFFFFFFFFFFFFFFFFF AND MUL OR SWAP1 SSTORE POP PUSH2 0x579 DUP1 PUSH2 0x61 PUSH1 0x0 CODECOPY PUSH1 0x0 RETURN INVALID PUSH1 0x80 PUSH1 0x40 MSTORE PUSH1 0x4 CALLDATASIZE LT PUSH2 0x38 JUMPI PUSH1 0x0 CALLDATALOAD PUSH1 0xE0 SHR DUP1 PUSH4 0x19E5BF3A EQ PUSH2 0xB1 JUMPI DUP1 PUSH4 0x8DA5CB5B EQ PUSH2 0xDE JUMPI DUP1 PUSH4 0xFB8299B0 EQ PUSH2 0x11F JUMPI PUSH2 0x39 JUMP JUMPDEST JUMPDEST PUSH32 0xC3C5FFFB3C0F24B3BC590D2C32D22157634000403CDC35BBE4169569797976E6 CALLER PUSH8 0xDE0B6B3A7640000 CALLVALUE DUP2 PUSH2 0x6C JUMPI INVALID JUMPDEST DIV PUSH1 0x40 MLOAD DUP1 DUP4 PUSH20 0xFFFFFFFFFFFFFFFFFFFFFFFFFFFFFFFFFFFFFFFF AND DUP2 MSTORE PUSH1 0x20 ADD DUP3 DUP2 MSTORE PUSH1 0x20 ADD SWAP3 POP POP POP PUSH1 0x40 MLOAD DUP1 SWAP2 SUB SWAP1 LOG1 CALLVALUE PUSH1 0x2 PUSH1 0x0 DUP3 DUP3 SLOAD ADD SWAP3 POP POP DUP2 SWAP1 SSTORE POP STOP JUMPDEST CALLVALUE DUP1 ISZERO PUSH2 0xBD JUMPI PUSH1 0x0 DUP1 REVERT JUMPDEST POP PUSH2 0xC6 PUSH2 0x14D JUMP JUMPDEST PUSH1 0x40 MLOAD DUP1 DUP3 ISZERO ISZERO DUP2 MSTORE PUSH1 0x20 ADD SWAP2 POP POP PUSH1 0x40 MLOAD DUP1 SWAP2 SUB SWAP1 RETURN JUMPDEST CALLVALUE DUP1 ISZERO PUSH2 0xEA JUMPI PUSH1 0x0 DUP1 REVERT JUMPDEST POP PUSH2 0xF3 PUSH2 0x219 JUMP JUMPDEST PUSH1 0x40 MLOAD DUP1 DUP3 PUSH20 0xFFFFFFFFFFFFFFFFFFFFFFFFFFFFFFFFFFFFFFFF AND DUP2 MSTORE PUSH1 0x20 ADD SWAP2 POP POP PUSH1 0x40 MLOAD DUP1 SWAP2 SUB SWAP1 RETURN JUMPDEST PUSH2 0x14B PUSH1 0x4 DUP1 CALLDATASIZE SUB PUSH1 0x20 DUP2 LT ISZERO PUSH2 0x135 JUMPI PUSH1 0x0 DUP1 REVERT JUMPDEST DUP2 ADD SWAP1 DUP1 DUP1 CALLDATALOAD SWAP1 PUSH1 0x20 ADD SWAP1 SWAP3 SWAP2 SWAP1 POP POP POP PUSH2 0x23F JUMP JUMPDEST STOP JUMPDEST PUSH1 0x0 PUSH1 0x14 PUSH1 0x0 DUP1 CALLER PUSH20 0xFFFFFFFFFFFFFFFFFFFFFFFFFFFFFFFFFFFFFFFF AND PUSH20 0xFFFFFFFFFFFFFFFFFFFFFFFFFFFFFFFFFFFFFFFF AND DUP2 MSTORE PUSH1 0x20 ADD SWAP1 DUP2 MSTORE PUSH1 0x20 ADD PUSH1 0x0 KECCAK256 DUP2 SWAP1 SSTORE POP PUSH1 0x2 SLOAD PUSH1 0x0 DUP1 PUSH1 0x1 PUSH1 0x0 SWAP1 SLOAD SWAP1 PUSH2 0x100 EXP SWAP1 DIV PUSH20 0xFFFFFFFFFFFFFFFFFFFFFFFFFFFFFFFFFFFFFFFF AND PUSH20 0xFFFFFFFFFFFFFFFFFFFFFFFFFFFFFFFFFFFFFFFF AND PUSH20 0xFFFFFFFFFFFFFFFFFFFFFFFFFFFFFFFFFFFFFFFF AND DUP2 MSTORE PUSH1 0x20 ADD SWAP1 DUP2 MSTORE PUSH1 0x20 ADD PUSH1 0x0 KECCAK256 DUP2 SWAP1 SSTORE POP PUSH1 0x1 PUSH1 0x3 PUSH1 0x0 PUSH2 0x100 EXP DUP2 SLOAD DUP2 PUSH1 0xFF MUL NOT AND SWAP1 DUP4 ISZERO ISZERO MUL OR SWAP1 SSTORE SWAP1 POP SWAP1 JUMP JUMPDEST PUSH1 0x1 PUSH1 0x0 SWAP1 SLOAD SWAP1 PUSH2 0x100 EXP SWAP1 DIV PUSH20 0xFFFFFFFFFFFFFFFFFFFFFFFFFFFFFFFFFFFFFFFF AND DUP2 JUMP JUMPDEST PUSH1 0x1 ISZERO ISZERO PUSH1 0x3 PUSH1 0x0 SWAP1 SLOAD SWAP1 PUSH2 0x100 EXP SWAP1 DIV PUSH1 0xFF AND ISZERO ISZERO EQ PUSH2 0x2C8 JUMPI PUSH1 0x40 MLOAD PUSH32 0x8C379A000000000000000000000000000000000000000000000000000000000 DUP2 MSTORE PUSH1 0x4 ADD DUP1 DUP1 PUSH1 0x20 ADD DUP3 DUP2 SUB DUP3 MSTORE PUSH1 0x16 DUP2 MSTORE PUSH1 0x20 ADD DUP1 PUSH32 0x596F7520617265206E6F74207265676973746572656400000000000000000000 DUP2 MSTORE POP PUSH1 0x20 ADD SWAP2 POP POP PUSH1 0x40 MLOAD DUP1 SWAP2 SUB SWAP1 REVERT JUMPDEST DUP1 PUSH1 0x0 DUP1 CALLER PUSH20 0xFFFFFFFFFFFFFFFFFFFFFFFFFFFFFFFFFFFFFFFF AND PUSH20 0xFFFFFFFFFFFFFFFFFFFFFFFFFFFFFFFFFFFFFFFF AND DUP2 MSTORE PUSH1 0x20 ADD SWAP1 DUP2 MSTORE PUSH1 0x20 ADD PUSH1 0x0 KECCAK256 SLOAD LT ISZERO PUSH2 0x35F JUMPI PUSH1 0x40 MLOAD PUSH32 0x8C379A000000000000000000000000000000000000000000000000000000000 DUP2 MSTORE PUSH1 0x4 ADD DUP1 DUP1 PUSH1 0x20 ADD DUP3 DUP2 SUB DUP3 MSTORE PUSH1 0x24 DUP2 MSTORE PUSH1 0x20 ADD DUP1 PUSH2 0x520 PUSH1 0x24 SWAP2 CODECOPY PUSH1 0x40 ADD SWAP2 POP POP PUSH1 0x40 MLOAD DUP1 SWAP2 SUB SWAP1 REVERT JUMPDEST DUP1 PUSH1 0x2 SLOAD LT ISZERO PUSH2 0x3D7 JUMPI PUSH1 0x40 MLOAD PUSH32 0x8C379A000000000000000000000000000000000000000000000000000000000 DUP2 MSTORE PUSH1 0x4 ADD DUP1 DUP1 PUSH1 0x20 ADD DUP3 DUP2 SUB DUP3 MSTORE PUSH1 0x1A DUP2 MSTORE PUSH1 0x20 ADD DUP1 PUSH32 0x4E6F7420656E6F7567682066756E6473206F6E2077616C6C6574000000000000 DUP2 MSTORE POP PUSH1 0x20 ADD SWAP2 POP POP PUSH1 0x40 MLOAD DUP1 SWAP2 SUB SWAP1 REVERT JUMPDEST PUSH1 0x2 SLOAD DUP2 PUSH1 0x2 SLOAD SUB GT ISZERO PUSH2 0x3E7 JUMPI INVALID JUMPDEST PUSH1 0x0 DUP1 CALLER PUSH20 0xFFFFFFFFFFFFFFFFFFFFFFFFFFFFFFFFFFFFFFFF AND PUSH20 0xFFFFFFFFFFFFFFFFFFFFFFFFFFFFFFFFFFFFFFFF AND DUP2 MSTORE PUSH1 0x20 ADD SWAP1 DUP2 MSTORE PUSH1 0x20 ADD PUSH1 0x0 KECCAK256 SLOAD DUP2 PUSH1 0x0 DUP1 CALLER PUSH20 0xFFFFFFFFFFFFFFFFFFFFFFFFFFFFFFFFFFFFFFFF AND PUSH20 0xFFFFFFFFFFFFFFFFFFFFFFFFFFFFFFFFFFFFFFFF AND DUP2 MSTORE PUSH1 0x20 ADD SWAP1 DUP2 MSTORE PUSH1 0x20 ADD PUSH1 0x0 KECCAK256 SLOAD SUB GT ISZERO PUSH2 0x46F JUMPI INVALID JUMPDEST CALLER PUSH20 0xFFFFFFFFFFFFFFFFFFFFFFFFFFFFFFFFFFFFFFFF AND PUSH2 0x8FC PUSH8 0xDE0B6B3A7640000 DUP4 MUL SWAP1 DUP2 ISZERO MUL SWAP1 PUSH1 0x40 MLOAD PUSH1 0x0 PUSH1 0x40 MLOAD DUP1 DUP4 SUB DUP2 DUP6 DUP9 DUP9 CALL SWAP4 POP POP POP POP ISZERO DUP1 ISZERO PUSH2 0x4BF JUMPI RETURNDATASIZE PUSH1 0x0 DUP1 RETURNDATACOPY RETURNDATASIZE PUSH1 0x0 REVERT JUMPDEST POP DUP1 PUSH1 0x0 DUP1 CALLER PUSH20 0xFFFFFFFFFFFFFFFFFFFFFFFFFFFFFFFFFFFFFFFF AND PUSH20 0xFFFFFFFFFFFFFFFFFFFFFFFFFFFFFFFFFFFFFFFF AND DUP2 MSTORE PUSH1 0x20 ADD SWAP1 DUP2 MSTORE PUSH1 0x20 ADD PUSH1 0x0 KECCAK256 PUSH1 0x0 DUP3 DUP3 SLOAD SUB SWAP3 POP POP DUP2 SWAP1 SSTORE POP DUP1 PUSH1 0x2 PUSH1 0x0 DUP3 DUP3 SLOAD SUB SWAP3 POP POP DUP2 SWAP1 SSTORE POP POP JUMP INVALID 0x4E PUSH16 0x7420656E6F7567682072656D61696E69 PUSH15 0x67206D6F6E6579206F6E2077616C6C PUSH6 0x74A264697066 PUSH20 0x582212206E301B629B75E631ECE94198B8AA9839 DUP9 EQ CREATE 0x4D PUSH1 0x6C 0x2E PUSH8 0x5D8CFBF5386D3CBF PUSH5 0x736F6C6343 STOP MOD 0xC STOP CALLER "
				},
				"gasEstimates": {
					"creation": {
						"codeDepositCost": "280200",
						"executionCost": "21184",
						"totalCost": "301384"
					},
					"external": {
						"": "22336",
						"Register()": "62902",
						"WithdrawMoney(uint256)": "infinite",
						"owner()": "1047"
					}
				},
				"methodIdentifiers": {
					"Register()": "19e5bf3a",
					"WithdrawMoney(uint256)": "fb8299b0",
					"owner()": "8da5cb5b"
				}
			},
			"storageLayout": {
				"storage": [
					{
						"astId": 5,
						"contract": "Smart Wallet.sol:SmartWallet",
						"label": "Balance",
						"offset": 0,
						"slot": "0",
						"type": "t_mapping(t_address,t_uint256)"
					},
					{
						"astId": 7,
						"contract": "Smart Wallet.sol:SmartWallet",
						"label": "owner",
						"offset": 0,
						"slot": "1",
						"type": "t_address_payable"
					},
					{
						"astId": 15,
						"contract": "Smart Wallet.sol:SmartWallet",
						"label": "funds",
						"offset": 0,
						"slot": "2",
						"type": "t_uint256"
					},
					{
						"astId": 17,
						"contract": "Smart Wallet.sol:SmartWallet",
						"label": "register",
						"offset": 0,
						"slot": "3",
						"type": "t_bool"
					}
				],
				"types": {
					"t_address": {
						"encoding": "inplace",
						"label": "address",
						"numberOfBytes": "20"
					},
					"t_address_payable": {
						"encoding": "inplace",
						"label": "address payable",
						"numberOfBytes": "20"
					},
					"t_bool": {
						"encoding": "inplace",
						"label": "bool",
						"numberOfBytes": "1"
					},
					"t_mapping(t_address,t_uint256)": {
						"encoding": "mapping",
						"key": "t_address",
						"label": "mapping(address => uint256)",
						"numberOfBytes": "32",
						"value": "t_uint256"
					},
					"t_uint256": {
						"encoding": "inplace",
						"label": "uint256",
						"numberOfBytes": "32"
					}
				}
			},
			"userdoc": {
				"kind": "user",
				"methods": {},
				"version": 1
			}
		}
	}
}