{
  "_format": "hh-sol-artifact-1",
  "contractName": "Allowance",
  "sourceName": "contracts/Allowance.sol",
  "abi": [
    {
      "anonymous": false,
      "inputs": [
        {
          "indexed": true,
          "internalType": "address",
          "name": "_beneficiary",
          "type": "address"
        },
        {
          "indexed": false,
          "internalType": "uint256",
          "name": "_amount",
          "type": "uint256"
        }
      ],
      "name": "AllowanceSet",
      "type": "event"
    },
    {
      "anonymous": false,
      "inputs": [
        {
          "indexed": true,
          "internalType": "address",
          "name": "previousOwner",
          "type": "address"
        },
        {
          "indexed": true,
          "internalType": "address",
          "name": "newOwner",
          "type": "address"
        }
      ],
      "name": "OwnershipTransferred",
      "type": "event"
    },
    {
      "anonymous": false,
      "inputs": [
        {
          "indexed": true,
          "internalType": "address",
          "name": "_whom",
          "type": "address"
        },
        {
          "indexed": true,
          "internalType": "address",
          "name": "_who",
          "type": "address"
        },
        {
          "indexed": false,
          "internalType": "uint256",
          "name": "_prevAmount",
          "type": "uint256"
        },
        {
          "indexed": false,
          "internalType": "uint256",
          "name": "_newAmount",
          "type": "uint256"
        }
      ],
      "name": "ReducedAllowance",
      "type": "event"
    },
    {
      "inputs": [
        {
          "internalType": "address",
          "name": "_who",
          "type": "address"
        },
        {
          "internalType": "uint256",
          "name": "_amount",
          "type": "uint256"
        }
      ],
      "name": "ReduceAllowance",
      "outputs": [],
      "stateMutability": "nonpayable",
      "type": "function"
    },
    {
      "inputs": [
        {
          "internalType": "address",
          "name": "_to",
          "type": "address"
        },
        {
          "internalType": "uint256",
          "name": "_amount",
          "type": "uint256"
        }
      ],
      "name": "SetAllowance",
      "outputs": [],
      "stateMutability": "nonpayable",
      "type": "function"
    },
    {
      "inputs": [],
      "name": "owner",
      "outputs": [
        {
          "internalType": "address",
          "name": "",
          "type": "address"
        }
      ],
      "stateMutability": "view",
      "type": "function"
    },
    {
      "inputs": [],
      "name": "renounceOwnership",
      "outputs": [],
      "stateMutability": "nonpayable",
      "type": "function"
    },
    {
      "inputs": [
        {
          "internalType": "address",
          "name": "newOwner",
          "type": "address"
        }
      ],
      "name": "transferOwnership",
      "outputs": [],
      "stateMutability": "nonpayable",
      "type": "function"
    }
  ],
  "bytecode": "0x608060405234801561001057600080fd5b5061002d61002261003260201b60201c565b61003a60201b60201c565b6100fe565b600033905090565b60008060009054906101000a900473ffffffffffffffffffffffffffffffffffffffff169050816000806101000a81548173ffffffffffffffffffffffffffffffffffffffff021916908373ffffffffffffffffffffffffffffffffffffffff1602179055508173ffffffffffffffffffffffffffffffffffffffff168173ffffffffffffffffffffffffffffffffffffffff167f8be0079c531659141344cd1fd0a4f28419497f9722a3daafe3b4186f6b6457e060405160405180910390a35050565b6109568061010d6000396000f3fe608060405234801561001057600080fd5b50600436106100575760003560e01c80633e7279a31461005c578063715018a6146100785780638da5cb5b146100825780639024c301146100a0578063f2fde38b146100bc575b600080fd5b61007660048036038101906100719190610624565b6100d8565b005b610080610176565b005b61008a61018a565b6040516100979190610673565b60405180910390f35b6100ba60048036038101906100b59190610624565b6101b3565b005b6100d660048036038101906100d1919061068e565b6103be565b005b6100e0610441565b80600160008473ffffffffffffffffffffffffffffffffffffffff1673ffffffffffffffffffffffffffffffffffffffff168152602001908152602001600020819055508173ffffffffffffffffffffffffffffffffffffffff167ffe8c0d8594f34b56806542999bd528bee3ffe8a95e165d8e5c104f0b97cf89628260405161016a91906106ca565b60405180910390a25050565b61017e610441565b61018860006104bf565b565b60008060009054906101000a900473ffffffffffffffffffffffffffffffffffffffff16905090565b806101bc61018a565b73ffffffffffffffffffffffffffffffffffffffff163373ffffffffffffffffffffffffffffffffffffffff161480610234575080600160003373ffffffffffffffffffffffffffffffffffffffff1673ffffffffffffffffffffffffffffffffffffffff1681526020019081526020016000205410155b610273576040517f08c379a000000000000000000000000000000000000000000000000000000000815260040161026a90610742565b60405180910390fd5b81600160008573ffffffffffffffffffffffffffffffffffffffff1673ffffffffffffffffffffffffffffffffffffffff16815260200190815260200160002060008282546102c29190610791565b925050819055508273ffffffffffffffffffffffffffffffffffffffff163373ffffffffffffffffffffffffffffffffffffffff167f225bc1b9bafb883207f0d96a0df285ee26f8d7506b22184b3f33fc401085c15d84600160008873ffffffffffffffffffffffffffffffffffffffff1673ffffffffffffffffffffffffffffffffffffffff1681526020019081526020016000205461036391906107c5565b600160008873ffffffffffffffffffffffffffffffffffffffff1673ffffffffffffffffffffffffffffffffffffffff168152602001908152602001600020546040516103b19291906107f9565b60405180910390a3505050565b6103c6610441565b600073ffffffffffffffffffffffffffffffffffffffff168173ffffffffffffffffffffffffffffffffffffffff1603610435576040517f08c379a000000000000000000000000000000000000000000000000000000000815260040161042c90610894565b60405180910390fd5b61043e816104bf565b50565b610449610583565b73ffffffffffffffffffffffffffffffffffffffff1661046761018a565b73ffffffffffffffffffffffffffffffffffffffff16146104bd576040517f08c379a00000000000000000000000000000000000000000000000000000000081526004016104b490610900565b60405180910390fd5b565b60008060009054906101000a900473ffffffffffffffffffffffffffffffffffffffff169050816000806101000a81548173ffffffffffffffffffffffffffffffffffffffff021916908373ffffffffffffffffffffffffffffffffffffffff1602179055508173ffffffffffffffffffffffffffffffffffffffff168173ffffffffffffffffffffffffffffffffffffffff167f8be0079c531659141344cd1fd0a4f28419497f9722a3daafe3b4186f6b6457e060405160405180910390a35050565b600033905090565b600080fd5b600073ffffffffffffffffffffffffffffffffffffffff82169050919050565b60006105bb82610590565b9050919050565b6105cb816105b0565b81146105d657600080fd5b50565b6000813590506105e8816105c2565b92915050565b6000819050919050565b610601816105ee565b811461060c57600080fd5b50565b60008135905061061e816105f8565b92915050565b6000806040838503121561063b5761063a61058b565b5b6000610649858286016105d9565b925050602061065a8582860161060f565b9150509250929050565b61066d816105b0565b82525050565b60006020820190506106886000830184610664565b92915050565b6000602082840312156106a4576106a361058b565b5b60006106b2848285016105d9565b91505092915050565b6106c4816105ee565b82525050565b60006020820190506106df60008301846106bb565b92915050565b600082825260208201905092915050565b7f596f7520617265206e6f7420617574686f726973656400000000000000000000600082015250565b600061072c6016836106e5565b9150610737826106f6565b602082019050919050565b6000602082019050818103600083015261075b8161071f565b9050919050565b7f4e487b7100000000000000000000000000000000000000000000000000000000600052601160045260246000fd5b600061079c826105ee565b91506107a7836105ee565b92508282039050818111156107bf576107be610762565b5b92915050565b60006107d0826105ee565b91506107db836105ee565b92508282019050808211156107f3576107f2610762565b5b92915050565b600060408201905061080e60008301856106bb565b61081b60208301846106bb565b9392505050565b7f4f776e61626c653a206e6577206f776e657220697320746865207a65726f206160008201527f6464726573730000000000000000000000000000000000000000000000000000602082015250565b600061087e6026836106e5565b915061088982610822565b604082019050919050565b600060208201905081810360008301526108ad81610871565b9050919050565b7f4f776e61626c653a2063616c6c6572206973206e6f7420746865206f776e6572600082015250565b60006108ea6020836106e5565b91506108f5826108b4565b602082019050919050565b60006020820190508181036000830152610919816108dd565b905091905056fea2646970667358221220053a30e2b595ae77bd5895d0a63ff10800279f506a84152008b3226e30ea605a64736f6c63430008110033",
  "linkReferences": {},
  "deployedLinkReferences": {}
}