{
  "_format": "hh-sol-artifact-1",
  "contractName": "smart_wallet",
  "sourceName": "contracts/Smart_Wallet.sol",
  "abi": [
    {
      "anonymous": false,
      "inputs": [
        {
          "indexed": true,
          "internalType": "address",
          "name": "_beneficiary",
          "type": "address"
        },
        {
          "indexed": false,
          "internalType": "uint256",
          "name": "_amount",
          "type": "uint256"
        }
      ],
      "name": "AllowanceSet",
      "type": "event"
    },
    {
      "anonymous": false,
      "inputs": [
        {
          "indexed": false,
          "internalType": "address",
          "name": "_sender",
          "type": "address"
        },
        {
          "indexed": false,
          "internalType": "uint256",
          "name": "_amount",
          "type": "uint256"
        }
      ],
      "name": "MoneyReceived",
      "type": "event"
    },
    {
      "anonymous": false,
      "inputs": [
        {
          "indexed": false,
          "internalType": "address",
          "name": "_to",
          "type": "address"
        },
        {
          "indexed": false,
          "internalType": "uint256",
          "name": "_amount",
          "type": "uint256"
        }
      ],
      "name": "MoneyWithdrawn",
      "type": "event"
    },
    {
      "anonymous": false,
      "inputs": [
        {
          "indexed": true,
          "internalType": "address",
          "name": "previousOwner",
          "type": "address"
        },
        {
          "indexed": true,
          "internalType": "address",
          "name": "newOwner",
          "type": "address"
        }
      ],
      "name": "OwnershipTransferred",
      "type": "event"
    },
    {
      "anonymous": false,
      "inputs": [
        {
          "indexed": true,
          "internalType": "address",
          "name": "_whom",
          "type": "address"
        },
        {
          "indexed": true,
          "internalType": "address",
          "name": "_who",
          "type": "address"
        },
        {
          "indexed": false,
          "internalType": "uint256",
          "name": "_prevAmount",
          "type": "uint256"
        },
        {
          "indexed": false,
          "internalType": "uint256",
          "name": "_newAmount",
          "type": "uint256"
        }
      ],
      "name": "ReducedAllowance",
      "type": "event"
    },
    {
      "inputs": [
        {
          "internalType": "address",
          "name": "_who",
          "type": "address"
        },
        {
          "internalType": "uint256",
          "name": "_amount",
          "type": "uint256"
        }
      ],
      "name": "ReduceAllowance",
      "outputs": [],
      "stateMutability": "nonpayable",
      "type": "function"
    },
    {
      "inputs": [
        {
          "internalType": "address",
          "name": "_to",
          "type": "address"
        },
        {
          "internalType": "uint256",
          "name": "_amount",
          "type": "uint256"
        }
      ],
      "name": "SetAllowance",
      "outputs": [],
      "stateMutability": "nonpayable",
      "type": "function"
    },
    {
      "inputs": [
        {
          "internalType": "address payable",
          "name": "_to",
          "type": "address"
        },
        {
          "internalType": "uint256",
          "name": "_amount",
          "type": "uint256"
        }
      ],
      "name": "WithdrawMoney",
      "outputs": [],
      "stateMutability": "nonpayable",
      "type": "function"
    },
    {
      "inputs": [],
      "name": "owner",
      "outputs": [
        {
          "internalType": "address",
          "name": "",
          "type": "address"
        }
      ],
      "stateMutability": "view",
      "type": "function"
    },
    {
      "inputs": [],
      "name": "renounceOwnership",
      "outputs": [],
      "stateMutability": "nonpayable",
      "type": "function"
    },
    {
      "inputs": [
        {
          "internalType": "address",
          "name": "newOwner",
          "type": "address"
        }
      ],
      "name": "transferOwnership",
      "outputs": [],
      "stateMutability": "nonpayable",
      "type": "function"
    },
    {
      "stateMutability": "payable",
      "type": "receive"
    }
  ],
  "bytecode": "0x608060405234801561001057600080fd5b5061002d61002261003260201b60201c565b61003a60201b60201c565b6100fe565b600033905090565b60008060009054906101000a900473ffffffffffffffffffffffffffffffffffffffff169050816000806101000a81548173ffffffffffffffffffffffffffffffffffffffff021916908373ffffffffffffffffffffffffffffffffffffffff1602179055508173ffffffffffffffffffffffffffffffffffffffff168173ffffffffffffffffffffffffffffffffffffffff167f8be0079c531659141344cd1fd0a4f28419497f9722a3daafe3b4186f6b6457e060405160405180910390a35050565b610d908061010d6000396000f3fe6080604052600436106100595760003560e01c80633e7279a31461009e578063715018a6146100c75780638da5cb5b146100de5780639024c301146101095780639fe2db2114610132578063f2fde38b1461015b57610099565b36610099577f27b15ed4cf832749ed39f33a64e4707ed60a761485e41ffec7343ecaddc0c02a333460405161008f92919061085e565b60405180910390a1005b600080fd5b3480156100aa57600080fd5b506100c560048036038101906100c091906108e4565b610184565b005b3480156100d357600080fd5b506100dc610222565b005b3480156100ea57600080fd5b506100f3610236565b6040516101009190610924565b60405180910390f35b34801561011557600080fd5b50610130600480360381019061012b91906108e4565b61025f565b005b34801561013e57600080fd5b506101596004803603810190610154919061097d565b61046a565b005b34801561016757600080fd5b50610182600480360381019061017d91906109bd565b610637565b005b61018c6106ba565b80600160008473ffffffffffffffffffffffffffffffffffffffff1673ffffffffffffffffffffffffffffffffffffffff168152602001908152602001600020819055508173ffffffffffffffffffffffffffffffffffffffff167ffe8c0d8594f34b56806542999bd528bee3ffe8a95e165d8e5c104f0b97cf89628260405161021691906109ea565b60405180910390a25050565b61022a6106ba565b6102346000610738565b565b60008060009054906101000a900473ffffffffffffffffffffffffffffffffffffffff16905090565b80610268610236565b73ffffffffffffffffffffffffffffffffffffffff163373ffffffffffffffffffffffffffffffffffffffff1614806102e0575080600160003373ffffffffffffffffffffffffffffffffffffffff1673ffffffffffffffffffffffffffffffffffffffff1681526020019081526020016000205410155b61031f576040517f08c379a000000000000000000000000000000000000000000000000000000000815260040161031690610a62565b60405180910390fd5b81600160008573ffffffffffffffffffffffffffffffffffffffff1673ffffffffffffffffffffffffffffffffffffffff168152602001908152602001600020600082825461036e9190610ab1565b925050819055508273ffffffffffffffffffffffffffffffffffffffff163373ffffffffffffffffffffffffffffffffffffffff167f225bc1b9bafb883207f0d96a0df285ee26f8d7506b22184b3f33fc401085c15d84600160008873ffffffffffffffffffffffffffffffffffffffff1673ffffffffffffffffffffffffffffffffffffffff1681526020019081526020016000205461040f9190610ae5565b600160008873ffffffffffffffffffffffffffffffffffffffff1673ffffffffffffffffffffffffffffffffffffffff1681526020019081526020016000205460405161045d929190610b19565b60405180910390a3505050565b80610473610236565b73ffffffffffffffffffffffffffffffffffffffff163373ffffffffffffffffffffffffffffffffffffffff1614806104eb575080600160003373ffffffffffffffffffffffffffffffffffffffff1673ffffffffffffffffffffffffffffffffffffffff1681526020019081526020016000205410155b61052a576040517f08c379a000000000000000000000000000000000000000000000000000000000815260040161052190610a62565b60405180910390fd5b4782111561056d576040517f08c379a000000000000000000000000000000000000000000000000000000000815260040161056490610bb4565b60405180910390fd5b8273ffffffffffffffffffffffffffffffffffffffff166108fc839081150290604051600060405180830381858888f193505050501580156105b3573d6000803e3d6000fd5b506105bc610236565b73ffffffffffffffffffffffffffffffffffffffff163373ffffffffffffffffffffffffffffffffffffffff16146105f9576105f8838361025f565b5b7fe020566b3b7b0c11a72c9a01a70122b5bb1e70d24128480342bad5367fbf54e2838360405161062a929190610c33565b60405180910390a1505050565b61063f6106ba565b600073ffffffffffffffffffffffffffffffffffffffff168173ffffffffffffffffffffffffffffffffffffffff16036106ae576040517f08c379a00000000000000000000000000000000000000000000000000000000081526004016106a590610cce565b60405180910390fd5b6106b781610738565b50565b6106c26107fc565b73ffffffffffffffffffffffffffffffffffffffff166106e0610236565b73ffffffffffffffffffffffffffffffffffffffff1614610736576040517f08c379a000000000000000000000000000000000000000000000000000000000815260040161072d90610d3a565b60405180910390fd5b565b60008060009054906101000a900473ffffffffffffffffffffffffffffffffffffffff169050816000806101000a81548173ffffffffffffffffffffffffffffffffffffffff021916908373ffffffffffffffffffffffffffffffffffffffff1602179055508173ffffffffffffffffffffffffffffffffffffffff168173ffffffffffffffffffffffffffffffffffffffff167f8be0079c531659141344cd1fd0a4f28419497f9722a3daafe3b4186f6b6457e060405160405180910390a35050565b600033905090565b600073ffffffffffffffffffffffffffffffffffffffff82169050919050565b600061082f82610804565b9050919050565b61083f81610824565b82525050565b6000819050919050565b61085881610845565b82525050565b60006040820190506108736000830185610836565b610880602083018461084f565b9392505050565b600080fd5b61089581610824565b81146108a057600080fd5b50565b6000813590506108b28161088c565b92915050565b6108c181610845565b81146108cc57600080fd5b50565b6000813590506108de816108b8565b92915050565b600080604083850312156108fb576108fa610887565b5b6000610909858286016108a3565b925050602061091a858286016108cf565b9150509250929050565b60006020820190506109396000830184610836565b92915050565b600061094a82610804565b9050919050565b61095a8161093f565b811461096557600080fd5b50565b60008135905061097781610951565b92915050565b6000806040838503121561099457610993610887565b5b60006109a285828601610968565b92505060206109b3858286016108cf565b9150509250929050565b6000602082840312156109d3576109d2610887565b5b60006109e1848285016108a3565b91505092915050565b60006020820190506109ff600083018461084f565b92915050565b600082825260208201905092915050565b7f596f7520617265206e6f7420617574686f726973656400000000000000000000600082015250565b6000610a4c601683610a05565b9150610a5782610a16565b602082019050919050565b60006020820190508181036000830152610a7b81610a3f565b9050919050565b7f4e487b7100000000000000000000000000000000000000000000000000000000600052601160045260246000fd5b6000610abc82610845565b9150610ac783610845565b9250828203905081811115610adf57610ade610a82565b5b92915050565b6000610af082610845565b9150610afb83610845565b9250828201905080821115610b1357610b12610a82565b5b92915050565b6000604082019050610b2e600083018561084f565b610b3b602083018461084f565b9392505050565b7f436f6e747261637420646f6573206e6f74206861766520656e6f75676820426160008201527f6c616e6365000000000000000000000000000000000000000000000000000000602082015250565b6000610b9e602583610a05565b9150610ba982610b42565b604082019050919050565b60006020820190508181036000830152610bcd81610b91565b9050919050565b6000819050919050565b6000610bf9610bf4610bef84610804565b610bd4565b610804565b9050919050565b6000610c0b82610bde565b9050919050565b6000610c1d82610c00565b9050919050565b610c2d81610c12565b82525050565b6000604082019050610c486000830185610c24565b610c55602083018461084f565b9392505050565b7f4f776e61626c653a206e6577206f776e657220697320746865207a65726f206160008201527f6464726573730000000000000000000000000000000000000000000000000000602082015250565b6000610cb8602683610a05565b9150610cc382610c5c565b604082019050919050565b60006020820190508181036000830152610ce781610cab565b9050919050565b7f4f776e61626c653a2063616c6c6572206973206e6f7420746865206f776e6572600082015250565b6000610d24602083610a05565b9150610d2f82610cee565b602082019050919050565b60006020820190508181036000830152610d5381610d17565b905091905056fea2646970667358221220b31afa9d53b76b5df5f3b31a4cb2239fe915afc9b2e85115f376ba9ae62ef63f64736f6c63430008110033",
  "linkReferences": {},
  "deployedLinkReferences": {}
}